{
  "contractName": "Tether",
  "abi": [
    {
      "inputs": [],
      "stateMutability": "nonpayable",
      "type": "constructor"
    },
    {
      "anonymous": false,
      "inputs": [
        {
          "indexed": true,
          "internalType": "address",
          "name": "_owner",
          "type": "address"
        },
        {
          "indexed": true,
          "internalType": "address",
          "name": "_spender",
          "type": "address"
        },
        {
          "indexed": false,
          "internalType": "uint256",
          "name": "_value",
          "type": "uint256"
        }
      ],
      "name": "Approval",
      "type": "event"
    },
    {
      "anonymous": false,
      "inputs": [
        {
          "indexed": true,
          "internalType": "address",
          "name": "_from",
          "type": "address"
        },
        {
          "indexed": true,
          "internalType": "address",
          "name": "_to",
          "type": "address"
        },
        {
          "indexed": false,
          "internalType": "uint256",
          "name": "_value",
          "type": "uint256"
        }
      ],
      "name": "Transfer",
      "type": "event"
    },
    {
      "inputs": [
        {
          "internalType": "address",
          "name": "",
          "type": "address"
        },
        {
          "internalType": "address",
          "name": "",
          "type": "address"
        }
      ],
      "name": "allowance",
      "outputs": [
        {
          "internalType": "uint256",
          "name": "",
          "type": "uint256"
        }
      ],
      "stateMutability": "view",
      "type": "function",
      "constant": true
    },
    {
      "inputs": [
        {
          "internalType": "address",
          "name": "",
          "type": "address"
        }
      ],
      "name": "balanceof",
      "outputs": [
        {
          "internalType": "uint256",
          "name": "",
          "type": "uint256"
        }
      ],
      "stateMutability": "view",
      "type": "function",
      "constant": true
    },
    {
      "inputs": [],
      "name": "decimals",
      "outputs": [
        {
          "internalType": "uint256",
          "name": "",
          "type": "uint256"
        }
      ],
      "stateMutability": "view",
      "type": "function",
      "constant": true
    },
    {
      "inputs": [],
      "name": "name",
      "outputs": [
        {
          "internalType": "string",
          "name": "",
          "type": "string"
        }
      ],
      "stateMutability": "view",
      "type": "function",
      "constant": true
    },
    {
      "inputs": [],
      "name": "symbol",
      "outputs": [
        {
          "internalType": "string",
          "name": "",
          "type": "string"
        }
      ],
      "stateMutability": "view",
      "type": "function",
      "constant": true
    },
    {
      "inputs": [],
      "name": "total_supply",
      "outputs": [
        {
          "internalType": "uint256",
          "name": "",
          "type": "uint256"
        }
      ],
      "stateMutability": "view",
      "type": "function",
      "constant": true
    },
    {
      "inputs": [
        {
          "internalType": "address",
          "name": "_to",
          "type": "address"
        },
        {
          "internalType": "uint256",
          "name": "_value",
          "type": "uint256"
        }
      ],
      "name": "transfer",
      "outputs": [
        {
          "internalType": "bool",
          "name": "success",
          "type": "bool"
        }
      ],
      "stateMutability": "nonpayable",
      "type": "function"
    },
    {
      "inputs": [
        {
          "internalType": "address",
          "name": "_spender",
          "type": "address"
        },
        {
          "internalType": "uint256",
          "name": "_value",
          "type": "uint256"
        }
      ],
      "name": "approve",
      "outputs": [
        {
          "internalType": "bool",
          "name": "success",
          "type": "bool"
        }
      ],
      "stateMutability": "nonpayable",
      "type": "function"
    },
    {
      "inputs": [
        {
          "internalType": "address",
          "name": "_from",
          "type": "address"
        },
        {
          "internalType": "address",
          "name": "_to",
          "type": "address"
        },
        {
          "internalType": "uint256",
          "name": "_value",
          "type": "uint256"
        }
      ],
      "name": "transferfrom",
      "outputs": [
        {
          "internalType": "bool",
          "name": "success",
          "type": "bool"
        }
      ],
      "stateMutability": "nonpayable",
      "type": "function"
    }
  ],
  "bytecode": "0x60806040526040518060400160405280601181526020017f4d6f636b2054657468657220546f6b656e00000000000000000000000000000081525060009080519060200190620000519291906200010d565b506040518060400160405280600481526020017f5553445400000000000000000000000000000000000000000000000000000000815250600190805190602001906200009f9291906200010d565b5069d3c21bcecceda10000006002556012600355348015620000c057600080fd5b50600254600460003373ffffffffffffffffffffffffffffffffffffffff1673ffffffffffffffffffffffffffffffffffffffff1681526020019081526020016000208190555062000222565b8280546200011b90620001ec565b90600052602060002090601f0160209004810192826200013f57600085556200018b565b82601f106200015a57805160ff19168380011785556200018b565b828001600101855582156200018b579182015b828111156200018a5782518255916020019190600101906200016d565b5b5090506200019a91906200019e565b5090565b5b80821115620001b95760008160009055506001016200019f565b5090565b7f4e487b7100000000000000000000000000000000000000000000000000000000600052602260045260246000fd5b600060028204905060018216806200020557607f821691505b602082108114156200021c576200021b620001bd565b5b50919050565b610c4a80620002326000396000f3fe608060405234801561001057600080fd5b50600436106100935760003560e01c80633d64125b116100665780633d64125b1461012257806363b0545f1461015257806395d89b4114610182578063a9059cbb146101a0578063dd62ed3e146101d057610093565b806306fdde0314610098578063095ea7b3146100b6578063313ce567146100e65780633940e9ee14610104575b600080fd5b6100a0610200565b6040516100ad91906108df565b60405180910390f35b6100d060048036038101906100cb919061099a565b61028e565b6040516100dd91906109f5565b60405180910390f35b6100ee610380565b6040516100fb9190610a1f565b60405180910390f35b61010c610386565b6040516101199190610a1f565b60405180910390f35b61013c60048036038101906101379190610a3a565b61038c565b6040516101499190610a1f565b60405180910390f35b61016c60048036038101906101679190610a67565b6103a4565b60405161017991906109f5565b60405180910390f35b61018a61062a565b60405161019791906108df565b60405180910390f35b6101ba60048036038101906101b5919061099a565b6106b8565b6040516101c791906109f5565b60405180910390f35b6101ea60048036038101906101e59190610aba565b610821565b6040516101f79190610a1f565b60405180910390f35b6000805461020d90610b29565b80601f016020809104026020016040519081016040528092919081815260200182805461023990610b29565b80156102865780601f1061025b57610100808354040283529160200191610286565b820191906000526020600020905b81548152906001019060200180831161026957829003601f168201915b505050505081565b600081600560003373ffffffffffffffffffffffffffffffffffffffff1673ffffffffffffffffffffffffffffffffffffffff16815260200190815260200160002060008573ffffffffffffffffffffffffffffffffffffffff1673ffffffffffffffffffffffffffffffffffffffff168152602001908152602001600020819055508273ffffffffffffffffffffffffffffffffffffffff163373ffffffffffffffffffffffffffffffffffffffff167f8c5be1e5ebec7d5bd14f71427d1e84f3dd0314c0f7b2291e5b200ac8c7c3b9258460405161036e9190610a1f565b60405180910390a36001905092915050565b60035481565b60025481565b60046020528060005260406000206000915090505481565b6000600460008573ffffffffffffffffffffffffffffffffffffffff1673ffffffffffffffffffffffffffffffffffffffff168152602001908152602001600020548211156103f257600080fd5b600560008573ffffffffffffffffffffffffffffffffffffffff1673ffffffffffffffffffffffffffffffffffffffff16815260200190815260200160002060003373ffffffffffffffffffffffffffffffffffffffff1673ffffffffffffffffffffffffffffffffffffffff1681526020019081526020016000205482111561047b57600080fd5b81600460008673ffffffffffffffffffffffffffffffffffffffff1673ffffffffffffffffffffffffffffffffffffffff16815260200190815260200160002060008282546104ca9190610b8a565b9250508190555081600460008573ffffffffffffffffffffffffffffffffffffffff1673ffffffffffffffffffffffffffffffffffffffff16815260200190815260200160002060008282546105209190610bbe565b9250508190555081600560008673ffffffffffffffffffffffffffffffffffffffff1673ffffffffffffffffffffffffffffffffffffffff16815260200190815260200160002060003373ffffffffffffffffffffffffffffffffffffffff1673ffffffffffffffffffffffffffffffffffffffff16815260200190815260200160002060008282546105b39190610b8a565b925050819055508273ffffffffffffffffffffffffffffffffffffffff168473ffffffffffffffffffffffffffffffffffffffff167fddf252ad1be2c89b69c2b068fc378daa952ba7f163c4a11628f55a4df523b3ef846040516106179190610a1f565b60405180910390a3600190509392505050565b6001805461063790610b29565b80601f016020809104026020016040519081016040528092919081815260200182805461066390610b29565b80156106b05780601f10610685576101008083540402835291602001916106b0565b820191906000526020600020905b81548152906001019060200180831161069357829003601f168201915b505050505081565b600081600460003373ffffffffffffffffffffffffffffffffffffffff1673ffffffffffffffffffffffffffffffffffffffff16815260200190815260200160002054101561070657600080fd5b81600460003373ffffffffffffffffffffffffffffffffffffffff1673ffffffffffffffffffffffffffffffffffffffff16815260200190815260200160002060008282546107559190610b8a565b9250508190555081600460008573ffffffffffffffffffffffffffffffffffffffff1673ffffffffffffffffffffffffffffffffffffffff16815260200190815260200160002060008282546107ab9190610bbe565b925050819055508273ffffffffffffffffffffffffffffffffffffffff163373ffffffffffffffffffffffffffffffffffffffff167fddf252ad1be2c89b69c2b068fc378daa952ba7f163c4a11628f55a4df523b3ef8460405161080f9190610a1f565b60405180910390a36001905092915050565b6005602052816000526040600020602052806000526040600020600091509150505481565b600081519050919050565b600082825260208201905092915050565b60005b83811015610880578082015181840152602081019050610865565b8381111561088f576000848401525b50505050565b6000601f19601f8301169050919050565b60006108b182610846565b6108bb8185610851565b93506108cb818560208601610862565b6108d481610895565b840191505092915050565b600060208201905081810360008301526108f981846108a6565b905092915050565b600080fd5b600073ffffffffffffffffffffffffffffffffffffffff82169050919050565b600061093182610906565b9050919050565b61094181610926565b811461094c57600080fd5b50565b60008135905061095e81610938565b92915050565b6000819050919050565b61097781610964565b811461098257600080fd5b50565b6000813590506109948161096e565b92915050565b600080604083850312156109b1576109b0610901565b5b60006109bf8582860161094f565b92505060206109d085828601610985565b9150509250929050565b60008115159050919050565b6109ef816109da565b82525050565b6000602082019050610a0a60008301846109e6565b92915050565b610a1981610964565b82525050565b6000602082019050610a346000830184610a10565b92915050565b600060208284031215610a5057610a4f610901565b5b6000610a5e8482850161094f565b91505092915050565b600080600060608486031215610a8057610a7f610901565b5b6000610a8e8682870161094f565b9350506020610a9f8682870161094f565b9250506040610ab086828701610985565b9150509250925092565b60008060408385031215610ad157610ad0610901565b5b6000610adf8582860161094f565b9250506020610af08582860161094f565b9150509250929050565b7f4e487b7100000000000000000000000000000000000000000000000000000000600052602260045260246000fd5b60006002820490506001821680610b4157607f821691505b60208210811415610b5557610b54610afa565b5b50919050565b7f4e487b7100000000000000000000000000000000000000000000000000000000600052601160045260246000fd5b6000610b9582610964565b9150610ba083610964565b925082821015610bb357610bb2610b5b565b5b828203905092915050565b6000610bc982610964565b9150610bd483610964565b9250827fffffffffffffffffffffffffffffffffffffffffffffffffffffffffffffffff03821115610c0957610c08610b5b565b5b82820190509291505056fea2646970667358221220f200bfa321d0276bba008429f590bf34f1b4dc15d746624b83e74543f51717dc64736f6c634300080a0033",
  "immutableReferences": {},
  "source": "pragma solidity ^0.8.4; \r\n\r\ncontract Tether{\r\n    string public name = 'Mock Tether Token';\r\n    string public symbol = 'USDT';\r\n    uint public total_supply = 1000000000000000000000000;\r\n    uint public decimals = 18;\r\n\r\nevent Transfer(\r\n    address indexed _from,\r\n    address indexed _to,\r\n    uint _value\r\n);\r\nevent Approval(\r\n    address indexed _owner,\r\n    address indexed _spender,\r\n    uint _value\r\n);\r\n\r\nmapping(address => uint)public balanceof;\r\nmapping(address => mapping(address => uint))public allowance ;\r\n\r\nconstructor(){\r\n    balanceof[msg.sender] = total_supply;\r\n}\r\n\r\nfunction transfer(address _to , uint _value)public returns (bool success){\r\n    require(balanceof[msg.sender]>= _value);\r\n    balanceof[msg.sender] -= _value;\r\n    balanceof[_to] += _value;\r\n    emit Transfer(msg.sender, _to, _value);\r\n    return true;\r\n}\r\nfunction approve(address _spender,uint _value)public returns (bool success){\r\n    allowance[msg.sender][_spender] = _value ;\r\n    emit Approval(msg.sender, _spender, _value);\r\n    return true;\r\n}\r\n\r\nfunction transferfrom(address _from,address _to,uint _value)public returns(bool success){\r\n    require(_value<= balanceof[_from]);\r\n    require(_value<=allowance[_from][msg.sender]);\r\n    balanceof[_from] -= _value;\r\n    balanceof[_to] += _value;\r\n    allowance[_from][msg.sender] -= _value;\r\n    emit Transfer(_from, _to, _value);\r\n    return true;\r\n\r\n}\r\n\r\n}",
  "sourcePath": "C:\\Users\\RvD\\defi-staking-app-starter\\defi-staking-app-starter\\src\\contracts\\Tether.sol",
  "compiler": {
    "name": "solc",
    "version": "0.8.10+commit.fc410830.Emscripten.clang"
  },
  "schemaVersion": "3.4.3",
  "updatedAt": "2021-12-20T09:58:24.572Z",
  "networkType": "ethereum",
  "devdoc": {
    "kind": "dev",
    "methods": {},
    "version": 1
  },
  "userdoc": {
    "kind": "user",
    "methods": {},
    "version": 1
  }
}